:1000000000308A00D52D00000A108A100A118207DC
:100010004C3465346E3464346F343A340A3400340A
:100020000A108A100A1182074534723472346F3410
:10003000213400340A108A100A11820744346134D2
:1000400064346F3473343A34203400340A108A1024
:100050000A1182070A34533461346C3464346F34C7
:10006000203461346E3474346534723469346F34DE
:1000700072343A342034253469340A3400340A1096
:100080008A100A1182072034533465346D342034C9
:100090006334723465346434693474346F34733463
:1000A000213420340A3400340A108A100A118207DD
:1000B0005234653463346134723472346534673475
:1000C00061346E3464346F342E340A3400340A10D0
:1000D0008A100A118207533461346C3464346F34EB
:1000E000203461347434753461346C343A342034DF
:1000F000253469340A3400340A108A100A11820740
:100100004534723472346F343A3420346134753487
:10011000743465346E3474342E34203470342034A6
:100120006534733463347234693474346134213423
:100130000A3400344D308400831300080319AE28BC
:100140000130F800F701F70BA328F80BA2284A307A
:10015000F700F70BA928AC28800BA02800348316E1
:10016000A901AA012A08073C031CDC28A81FBA28F9
:100170000130BB280030003A031DC228831205104D
:10018000C428831683120514831605100310A80DC6
:10019000831285138316851300000310A90D8312A3
:1001A0008517831685138514003083128518013056
:1001B0008316A907AA0AB2282908F8008312003476
:1001C000831605138312051303108316240D7E393D
:1001D000A700A8008312AF2083162508A800831269
:1001E000AF208316051383120517003483160513F9
:1001F0008312051303108316230D7E398038A70060
:10020000A8008312AF208316A8018312AF207808BC
:100210008316A40005138312051783162408F8001B
:100220008312003483162008A3008312F620780876
:100230008316A20022082104A3002008A40023089A
:10024000A5008312E02000340A30650007309F00CB
:10025000831605080330F700F70B2C2983121F08BB
:100260000C1383169F010512831205163230CD0040
:100270009A2083160512831205126430CD009A204D
:1002800083160512831205163230CD009A2083168C
:1002900005128312051283168513831285138316A4
:1002A0000513831205138316051183120515831692
:1002B00005118312051501308316A4000F30A50027
:1002C0008312E0202A308316A4008D30A50083120B
:1002D000E0202B308316A4003E30A5008312E020DE
:1002E0002D308316A4001E30A5008312E0202C3090
:1002F0008316A400A5018312E02015308316A40004
:100300004030A5008312E02011308316A4003D3058
:10031000A5008312E02014308316A3008312F62078
:100320007808CC004C080339031D9D29143083162E
:10033000A0000330A1008312122102308316A40012
:100340000830A5008312E020FD2D83162008A300AD
:100350008312F62078088316A2002108FF3A2205AE
:10036000A3002008A4002308A5008312E020003485
:100370000230ED00EE01EF0165080E3A0319C429C1
:10038000023A0319C929CE291230EE001030EF00CD
:10039000CF297730EE003030EF00CF29CF296E081B
:1003A00080388316A0000230A4002008A500831224
:1003B000E02004308316A0008030A1008312A52124
:1003C0000A308316A0008030A10083121221013070
:1003D0008316A400A5018312E020F301F201F308C3
:1003E000031D092A680872020318092A66087207A1
:1003F000840083136718831700088316A000093050
:10040000A4002008A5008312E020F20A0319F30AD1
:10041000EF2901308316A400831265088316A50016
:100420008312E02065080C3C031D1D2A0D30831645
:10043000A0008030A100831212210730F300D030D9
:10044000F20004308316A3008312F6207808F1002E
:1004500072080319F303F203F208031D322AF308AA
:100460000319382A7118382A71086F050319212ACF
:100470000D308316A0008030A1008312A521F20860
:10048000031D452AF3080319C52A06308316A30065
:100490008312F62078081B39031DC32AED01710869
:1004A0006E0501390319562A0130ED0065080C3C30
:1004B000031DC22A0A308316A3008312F62078088F
:1004C000F1000C308316A3008312F6207808073958
:1004D000F000F00803197F2A6B08840083136C185E
:1004E000831701307102F700F70DF70DF70DF830A3
:1004F000F705770870078000840A80018F2A6B084F
:10050000840083136C188317710DF700F70DF70D36
:10051000F830F7057708840A800184038000F10829
:10052000031D942A0130F1007108103C03189A2A27
:100530001030F100F301F201F308031DC22A710823
:1005400072020318C22A69087207F8007308FA00D9
:100550006A0803186A0FFA0778088316A0007A0859
:10056000A1000930A3008312F6208316200884001E
:1005700083132118831778088000F20A0319F30AFD
:1005800083129C2AC52A0230ED006D08F800003461
:100590000D308316A4000730A5008312E0204D081B
:1005A000840083134E1883174C0880000C30E5003C
:1005B0004E08E7004D08E6000130E8004E08EA006A
:1005C0004D08E900EC015030EB00B8217808CF006D
:1005D000CF08031DF22A5008103C031DF22AD1084F
:1005E0000319F42A0230CF004F08F800092ED00179
:1005F0000D308316A400A5018312E0204C0884006E
:1006000083134D1883179330800001304C0784000A
:1006100083134D188317203080000C30E5004D08FF
:10062000E7004C08E6000230E8004D08EA004C08FC
:10063000E900EC015130EB00B8217808CE00CE087B
:10064000031D3D2BCF014F08033C031C312B4F08EA
:100650004C07840083134D1883170008D006CF0A77
:10066000232B4F084C07840083134D188317000871
:10067000500203193D2B0230CE004E08F8000F2E19
:100680005508F80154020318482B5408F700542B5E
:10069000F7010830D600D40DF70D5508770203187E
:1006A000F700F80DD60B4B2B003420304F1E3030A6
:1006B000D0004E08F700CE1F642BF709F70A770821
:1006C000CE002D30D000CF174E08D4006430D500B6
:1006D00040237708CE0030307807D1004E08D40090
:1006E0000A30D500402330307707D3003030780708
:1006F000D2005008F700CF1D7F2BCF1F4F114F1A8C
:100700008C2BCF1FA72B4F19A72B7708D100CF1801
:10071000A72B7708D200A72B30305102031DA72B3F
:100720007708D1002030D000CF1D9A2B4F11CF1465
:10073000CF1FCF1030305202031DA72B7708D200F5
:100740002030D100CF1D9A2BCF10CF1F4F104F1D3F
:10075000AD2B50080C1EAA2B9900CF1CB32B5108AF
:100760000C1EB02B99004F1CB92B52080C1EB62B37
:10077000990053080C1EBA2B9900003405308316DB
:10078000A0000430A1008312A5210A308316A00026
:100790008030A10083121221EA0167086A0203185F
:1007A000EA2B6A086507F8006608FA000318FA0AD7
:1007B0007808840083137A1883170008EC00093046
:1007C0008316A40083126C088316A5008312E02010
:1007D000EA0ACD2B01308316A4000330A500831252
:1007E000E020FF30EA0005308316A3008312F620D4
:1007F0007808EB00EA03EA080319002C6B1DF32BC1
:100800006808F8006908FA006808EC006908ED005B
:1008100022308316A3008312F6206C088400831311
:100820006D1883177808800001306807F8006908A0
:10083000FA000318FA0A7808EC007A08ED00213073
:100840008316A3008312F6206C08840083136D18AE
:1008500083177808800000349330D3007030D400C0
:10086000CE014E08043C031C572C02304E07533E69
:10087000F800FA010318FA0A7808DD007A08DE00A9
:100880004E084C07F8004D08FA000318FA0A7808D9
:10089000840083137A1883170008DF005D08840042
:1008A00083135E1883175F088000CE0A312CE6019F
:1008B0005330E5000730E700E9015A30E800BE2375
:1008C0000C30E500E7015330E6000930E800EA01AA
:1008D0005330E900EC015130EB00B8217808CF002B
:1008E000CF08031D7D2C5108183C031D7D2CD20818
:1008F000031D7D2C5308D0007E2CD0015008F80039
:10090000702E4C08D6004D08D700D5015508053C7F
:10091000031CAC2C02305507563EF800FA010318B0
:10092000FA0A7808E3007A08E40055084E07F80050
:100930004F08FA000318FA0A7808840083137A181B
:1009400083170008E5006308840083136418831785
:1009500065088000D50A862CD5015508033C031C88
:10096000D32C08305507563EF800FA010318FA0A4E
:100970007808E3007A08E40055085007F8005108A9
:10098000FA000318FA0A7808840083137A18831788
:100990000008E50063088400831364188317650862
:1009A0008000D50AAD2C0E30E500E7015630E60098
:1009B0000C30E800EA015630E900EC015330EB005E
:1009C000B8217808D200D208031DED2C0830831618
:1009D000A3008312F620F819EF2C0230D20052083F
:1009E000F80000344D08840083134E18831730300C
:1009F000800001304D07840083134E1883174C0884
:100A0000800002304D07D2004E08D3000318D30AED
:100A10004E08E6004D08E5000230E7005308E90003
:100A20005208E800BE230C30E5004E08E7004D08F0
:100A3000E6000430E8004E08EA004D08E900EC0149
:100A40005030EB00B8217808CF00CF08031D2F2DC0
:100A50005008903C031D2F2DD1080319312D023071
:100A6000CF004F08F800932EA030D3004C08D400DC
:100A7000E6015330E5000230E700E9015530E800B7
:100A8000BE230C30E500E7015330E6000430E800F7
:100A9000EA015330E900EC015030EB00B82178084E
:100AA000CF00CF08031D602D5008043C031D602DAE
:100AB000D108031D602D53080F390A3C0319622D1C
:100AC0000230CF00CF08031DB52DD20152080F3CD4
:100AD000031C8B2D53305207F800FA010318FA0A51
:100AE0007808E5007A08E60052084D07F8004E083D
:100AF000FA000318FA0A7808840083137A18831717
:100B00000008E700650884008313661883176708E8
:100B10008000D20A662DE6015330E5001030E70070
:100B2000E9016330E800BE230C30E500E7015330F3
:100B3000E6001230E800EA015330E900EC015030E1
:100B4000EB00B8217808CF00CF08031DB32D500863
:100B5000043C031DB32DD108031DB32D53080F39D9
:100B60000A3C0319B52D0230CF004F08F800512F71
:100B70005030CF00D001E6014F30E5000230E700F1
:100B8000E9015130E800BE230C30E500E7014F30A9
:100B9000E6000430E800EA014F30E900EC014D3096
:100BA000EB00B8217808CC006F2F840183131F302D
:100BB000830583168E1519309900A6309800903061
:100BC0008312980007309F00FF30B600B700B800CE
:100BD000B900BA00BB00BC01BD01BE01BF01C0012C
:100BE000C101C201C301C401C50146100230C800E1
:100BF0000730CA000430CB00242983160512831263
:100C000005120230C800C6102630CC00CE01CD003F
:100C1000C82A7808C900CD012630CC00F72A780808
:100C2000C9002608A1002708A2002808A300290857
:100C3000A4002A08A50004308316A3008312F6201E
:100C4000F81E4D2E83160512831205163230CD0084
:100C50009A2083160512831205126430CD009A2063
:100C600083160512831205163230CD009A208316A2
:100C7000051283120512461C4D2EC908031D4D2E68
:100C8000831605128312051246100430CC00FA3088
:100C9000CD009A20CC0B472EC614C908031D6A2E1E
:100CA000C7014708043C031C662E21304707840017
:100CB00083130008CC0020300C1E5C2E99004C08D9
:100CC000CE001F30CF005523C70A512E2D300C1EE9
:100CD000672E9900C6186E2FCD012130CC002C2C28
:100CE0006030CC004A08CD00CF013630CE00D101B3
:100CF0002130D00081247808C900C908031D0A2FBB
:100D0000CC014C080420CC0AF70077080C1E862E74
:100D1000990007304C02031D812E4B08CC00CE01F8
:100D20002630CD00F22C7808C900C9080319A62E78
:100D3000CC014C081020CC0AF70077080C1E9E2E20
:100D4000990005304C02031D992E0A2FCC014C0846
:100D50001A20CC0AF70077080C1EAC2E9900073039
:100D60004C02031DA72EC70147080F3C031CCC2EC5
:100D700026304707840083130008CC00CE001F30C4
:100D8000CF00552320300C1EC32E99002D300C1E91
:100D9000C72E9900C70AB42ECC014C082620CC0AD5
:100DA000F70077080C1ED22E990011304C02031D5B
:100DB000CD2E3508CE001F30CF0055230A300C1E33
:100DC000DF2E9900B508031DFB2E831685158312AF
:100DD000851DED2E0130C800FA2ECC014C083F20B5
:100DE000CC0AF70077080C1EF32E990010304C0245
:100DF000031DEE2EFC2EC80183168515831285195E
:100E0000052F35080A3C0318072F0130C800B50824
:100E1000031D46144808013C031C612F480B202F7A
:100E2000CC014C085420CC0AF70077080C1E162F72
:100E300099000E304C02031D112F0A30B5003B2FD4
:100E400001303502CC00CD014D086720CD0AF700F6
:100E500077080C1E292F99000D304D02031D242FF9
:100E60004C08CE001F30CF0055230A300C1E362F01
:100E700099000130B5026030CC004A08CD00CF01A6
:100E80003630CE00D1012130D00081247808C9004D
:100E9000C908031D542F4B08CC00CE012630CD00CD
:100EA000342D7808C900612FCC014C087C20CC0A75
:100EB000F70077080C1E5A2F990019304C02031DB9
:100EC000552F461C6E2F831605128312051604300B
:100ED000CC00FA30CD009A20CC0B692FB82D6430AD
:080EE000CD009A20012E6300F1
:02400E00503F21
:00000001FF
;PIC16F628A
