:1000000000308A00FA2C00000A108A100A118207B8
:100010002D345334613454342534693400344C3035
:10002000840083130008031923280130F800F70126
:10003000F70B1828F80B17284A30F700F70B1E2883
:100040002128800B152800348316A401A50125085A
:10005000073C031C5128A31F2F28013030280030F3
:10006000003A031D3728831205103928831683129E
:100070000514831605100310A30D83128513831630
:10008000851300000310A40D8312851783168513B2
:10009000851400308312851801308316A407A50A41
:1000A00027282408F80083120034831605138312CE
:1000B000051303107C0D7E398316A100A300831263
:1000C00024207D088316A3008312242083160513A1
:1000D00083120517003483160513831205130310CA
:1000E000760D7E3980388316A200A3008312242067
:1000F0008316A301831224207808FC0083160513BD
:10010000831205177C08F80000347308F6006B2092
:100110007808F50075087404F6007308FC0076088A
:10012000FD00552000340A306500003066000730BD
:100130009F00831605080330F700F70B9D288312F4
:100140001F080C1383169F010512831205166430D5
:10015000CC000F2083160512831205126430CC00E8
:100160000F2083160512831205166430CC000F2071
:1001700083160512831205128316851383128513C5
:1001800083160513831205138316051183120515B3
:1001900083160511831205150130FC000F30FD0098
:1001A00055202A30FC008D30FD0055202B30FC00FE
:1001B0003E30FD0055202D30FC001E30FD00552046
:1001C0002C30FC00FD0155201530FC004030FD00B6
:1001D00055201130FC003D30FD0055201430F60054
:1001E0006B207808CB004B080339031DFC28143022
:1001F000F3000330F40085200230FC000830FD00DD
:100200005520212D7308F6006B207808F50074083E
:10021000FF3A7505F6007308FC007608FD005520CE
:1002200000340230EC00ED01EE0164080E3A0319CF
:100230001D29023A0319222927291230ED00103016
:10024000EE0028297730ED003030EE0028292829EB
:100250006D088038F3000230FC007308FD00552063
:100260000430F3008030F40002210A30F3008030C3
:10027000F40085200130FC00FD015520F201F10160
:10028000F208031D582967087102031858296508E8
:10029000710784008313661883170008F300093080
:1002A000FC007308FD005520F10A0319F20A4029E9
:1002B0000130FC006408FD00552064080C3C031D5F
:1002C00066290D30F3008030F40085200730F200FD
:1002D000D030F1000430F6006B207808F00071088F
:1002E0000319F203F103F108031D7929F208031938
:1002F0007F2970187F2970086E0503196A290D304F
:10030000F3008030F4000221F108031D8A29F2086D
:100310000319002A0630F6006B2078081B39031DEC
:10032000FE29EC0170086D05013903199929013086
:10033000EC0064080C3C031DFD290A30F6006B201C
:100340007808F0000C30F6006B2078080739EF00D1
:10035000EF080319BE296A08840083136B188317FA
:1003600001307002F700F70DF70DF70DF830F705C3
:1003700077086F078000840A8001CE296A0884000C
:1003800083136B188317700DF700F70DF70DF83016
:10039000F7057708840A800184038000F008031DB4
:1003A000D3290130F0007008103C0318D92910300F
:1003B000F000F201F101F208031DFD29700871023D
:1003C0000318FD2968087107F8007208FA00690827
:1003D0000318690FFA077808F3007A08F400093067
:1003E000F6006B2073088400831374188317780851
:1003F0008000F10A0319F20ADB29002A0230EC001E
:100400006C08F80000340D30FC000730FD0055206A
:100410004C08840083134D1883174B0880000C3060
:10042000E4004D08E6004C08E5000130E7004D0807
:10043000E9004C08E800EB014F30EA001121780890
:10044000CE00CE08031D2B2A4F08103C031D2B2A7B
:10045000D00803192D2A0230CE004E08F800292DAD
:10046000CF010D30FC00FD0155204B0884008313A3
:100470004C1883179330800001304B07840083139E
:100480004C188317203080000C30E4004C08E60044
:100490004B08E5000230E7004C08E9004B08E80093
:1004A000EB015030EA0011217808CD00CD08031D82
:1004B000742ACE014E08033C031C682A4E084B07E1
:1004C000840083134C1883170008CF06CE0A5A2ADB
:1004D0004E084B07840083134C18831700084F0203
:1004E0000319742A0230CD004D08F8002F2D54084E
:1004F000F801530203187F2A5308F7008B2AF701EB
:100500000830D500D30DF70D540877020318F70013
:10051000F80DD50B822A003420304E1E3030CF002B
:100520004D08F700CD1F9B2AF709F70A7708CD0081
:100530002D30CF00CE174D08D3006430D400772281
:100540007708CD0030307807D0004D08D3000A304E
:10055000D400772230307707D20030307807D100CE
:100560004F08F700CE1DB62ACE1F4E114E1AC32AD1
:10057000CE1FDE2A4E19DE2A7708D000CE18DE2ADA
:100580007708D100DE2A30305002031DDE2A7708BA
:10059000D0002030CF00CE1DD12A4E11CE14CE1F58
:1005A000CE1030305102031DDE2A7708D1002030F2
:1005B000D000CE1DD12ACE10CE1F4E104E1DE42AE3
:1005C0004F080C1EE12A9900CE1CEA2A50080C1E86
:1005D000E72A99004E1CF02A51080C1EED2A9900BA
:1005E00052080C1EF12A990000340530F300043043
:1005F000F40002210A30F3008030F4008520E90184
:10060000660869020318192B69086407F800650871
:10061000FA000318FA0A7808840083137A188317FB
:100620000008EB000930FC006B08FD005520E90ACA
:10063000002B0130FC000330FD005520FF30E900A5
:100640000530F6006B207808EA00E903E908031991
:100650002B2B6A1D202B6708F8006808FA00670832
:10066000EB006808EC002230F6006B206B08840079
:1006700083136C1883177808800001306707F8002F
:100680006808FA000318FA0A7808EB007A08EC0008
:100690002130F6006B206B08840083136C188317DD
:1006A0007808800000349330D2007030D300CD0140
:1006B0004D08043C031C7E2B02304D07523EF800CF
:1006C000FA010318FA0A7808DC007A08DD004D0800
:1006D0004B07F8004C08FA000318FA0A780884005F
:1006E00083137A1883170008DE005C0884008313E4
:1006F0005D1883175E088000CD0A582BE501523043
:10070000E4000730E600E8015930E700F5220C303C
:10071000E400E6015230E5000930E700E90152301B
:10072000E800EB015030EA0011217808CE00CE0835
:10073000031DA42B5008183C031DA42BD108031D36
:10074000A42B5208CF00A52BCF014F08F800702D25
:100750004B08D5004C08D600D4015408053C031CB6
:10076000D32B02305407553EF800FA010318FA0A59
:100770007808E2007A08E30054084D07F8004E08B4
:10078000FA000318FA0A7808840083137A1883178A
:100790000008E40062088400831363188317640868
:1007A0008000D40AAD2BD4015408033C031CFA2B5F
:1007B00008305407553EF800FA010318FA0A780881
:1007C000E2007A08E30054084F07F8005008FA00E6
:1007D0000318FA0A7808840083137A18831700082C
:1007E000E4006208840083136318831764088000A0
:1007F000D40AD42B0E30E400E6015530E5000C306D
:10080000E700E9015530E800EB015230EA00112120
:100810007808D100D108031D122C0830F6006B2097
:10082000F819142C0230D1005108F80000344C089B
:10083000840083134D1883173030800001304C073B
:10084000840083134D1883174B08800002304C0737
:10085000D1004D08D2000318D20A4D08E5004C081B
:10086000E4000230E6005208E8005108E700F522F3
:100870000C30E4004D08E6004C08E5000430E700C9
:100880004D08E9004C08E800EB014F30EA00112167
:100890007808CE00CE08031D542C4F08903C031D51
:1008A000542CD0080319562C0230CE004E08F80004
:1008B000862DA030D2004B08D300E5015230E40071
:1008C0000230E600E8015430E700F5220C30E40085
:1008D000E6015230E5000430E700E9015230E8005B
:1008E000EB014F30EA0011217808CE00CE08031D3D
:1008F000852C4F08043C031D852CD008031D852C36
:1009000052080F390A3C0319872C0230CE00CE085A
:10091000031DDA2CD10151080F3C031CB02C5230BE
:100920005107F800FA010318FA0A7808E4007A0877
:10093000E50051084C07F8004D08FA000318FA0AC0
:100940007808840083137A1883170008E600640887
:10095000840083136518831766088000D10A8B2CE6
:10096000E5015230E4001030E600E8016230E700B3
:10097000F5220C30E400E6015230E5001230E700C9
:10098000E9015230E800EB014F30EA00112178080C
:10099000CE00CE08031DD82C4F08043C031DD82CD4
:1009A000D008031DD82C52080F390A3C0319DA2C41
:1009B0000230CE004E08F800322E5030CE00CF016B
:1009C000E5014E30E4000230E600E8015030E70077
:1009D000F5220C30E400E6014E30E5000430E7007B
:1009E000E9014E30E800EB014C30EA0011217808B3
:1009F000CB00352E840183131F30830583168E159B
:100A000019309900A6309800903083129800073072
:100A10009F00FF30B600B700B800B900BA00BB00B5
:100A2000BC01BD01BE01BF01C001C101C201C301C2
:100A3000C401C5010230C7000730C9000430CA0034
:100A4000932886110230C7002630CB00CD01CC00A0
:100A5000032A7808C800CC012630CB00302A780859
:100A6000C8002608A1002708A2002808A30029081A
:100A7000A4002A08A500831605128312051204306B
:100A8000F6006B20F81E4B2D8316051283120516F7
:100A90006430CC000F20C808031D6C2D2D300C1EB7
:100AA0004F2D990053300C1E532D9900C601460856
:100AB000043C031C6C2D213046078400831300087E
:100AC000CB002E300C1E622D99004B08CD001F303C
:100AD000CE008C22C60A572DCC012130CB00532BDF
:100AE0006030CB004908CC00CE013630CD00D001BB
:100AF0002130CF00A8237808C800C808031DF22DB4
:100B00004A08CB00CD012630CC00172C7808C8004D
:100B1000C8080319982D2D300C1E8C2D99004530D6
:100B20000C1E902D99004C300C1E942D9900F22D26
:100B30002D300C1E992D990053300C1E9D2D9900BF
:100B400041300C1EA12D99003508CD001F30CE007C
:100B50008C222D300C1EAA2D99000A300C1EAE2DB1
:100B60009900C60146080F3C031CC62D26304607D7
:100B7000840083130008CB00CD001F30CE008C22F0
:100B80002D300C1EC12D9900C60AB22DB508031DCB
:100B9000DE2D831685158312851DD12D0130C700EA
:100BA000DD2D2D300C1ED22D99004E300C1ED62D71
:100BB000990043300C1EDA2D9900DF2DC7018316F2
:100BC000851583128519E82D35080A3C0318EA2D8E
:100BD0000130C700B5080319F12D8619F12D8615CE
:100BE000F22D86114708013C031C342E8619342E41
:100BF000470B052E2D300C1EFB2D990052300C1E7C
:100C0000FF2D99000A30B5001C2E01303502CB00B3
:100C1000CC014C080420CC0AF70077080C1E0E2EDD
:100C2000990004304C02031D092E4B08CD001F30E3
:100C3000CE008C220130B5026030CB004908CC00D8
:100C4000CE013630CD00D0012130CF00A823780866
:100C5000C800C808031D342E4A08CB00CD01263039
:100C6000CC00592C7808C800DD2C0230CB00FA30BB
:0C0C7000CC000F20CB0B372E222D630090
:02400E00703F01
:00000001FF
;PIC16F628A
