:1000000000308A00912D00000A108A100A11820720
:100010000A3420342D342D342D3420340A34003465
:100020000A108A100A118207533465347234693415
:1000300061346C343A3400340A108A100A11820791
:100040004534723472346F3420346E346134203469
:100050006C346534693474347534723461342134E9
:1000600000340A108A100A1182072D3453344134A7
:100070003A342034253469340A3400340A108A10A2
:100080000A1182072D344E3443340A3400340A10E6
:100090008A100A1182075334613454343A342034BC
:1000A000253469340A3400344D3084008313000849
:1000B000031968280130F800F701F70B5D28F80BE9
:1000C0005C284A30F700F70B63286628800B5A2813
:1000D00000348316A901AA012A08073C031C9628AC
:1000E000A81F7428013075280030003A031D7C28B1
:1000F000831205107E2883168312051483160510BB
:100100000310A80D831285138316851300000310B6
:10011000A90D831285178316851385140030831269
:10012000851801308316A907AA0A6C282908F80047
:1001300083120034831605138312051303108316EC
:10014000240D7E39A700A800831269208316250894
:10015000A800831269208316051383120517003443
:10016000831605138312051303108316230D7E399E
:100170008038A700A800831269208316A801831283
:10018000692078088316A4000513831205178316C7
:100190002408F8008312003483162008A300831279
:1001A000B02078088316A20022082104A3002008AA
:1001B000A4002308A50083129A2000340A306500A9
:1001C0000030660007309F00831605080330F700F3
:1001D000F70BE82883121F080C1383169F010512E2
:1001E000831205163230CD00542083160512831277
:1001F00005126430CD0054208316051283120516B3
:100200003230CD0054208316051283120512831656
:100210008513831285138316051383120513831622
:10022000051183120515831605118312051501307A
:100230008316A4000F30A50083129A202A3083165B
:10024000A4008D30A50083129A202B308316A400C1
:100250003E30A50083129A202D308316A4001E3054
:10026000A50083129A202C308316A400A5018312C6
:100270009A2015308316A4004030A50083129A20DE
:1002800011308316A4003D30A50083129A2014304B
:100290008316A3008312B0207808CC004C080339E1
:1002A000031D592914308316A0000330A1008312C6
:1002B000CC2002308316A4000830A50083129A20B7
:1002C000CA2D83162008A3008312B0207808831655
:1002D000A2002108FF3A2205A3002008A400230859
:1002E000A50083129A2000340230ED00EE01EF01E8
:1002F00065080E3A03198029023A031985298A29CB
:100300001230EE001030EF008B297730EE003030E5
:10031000EF008B298B296E0880388316A0000230ED
:10032000A4002008A50083129A2004308316A000A0
:100330008030A100831261210A308316A000803032
:10034000A1008312CC2001308316A400A5018312E2
:100350009A20F301F201F308031DC529680872020F
:100360000318C5296608720784008313671883176A
:1003700000088316A0000930A4002008A5008312FD
:100380009A20F20A0319F30AAB2901308316A4005C
:10039000831265088316A50083129A2065080C3C19
:1003A000031DD9290D308316A0008030A1008312CF
:1003B000CC200730F300D030F20004308316A300C5
:1003C0008312B0207808F10072080319F303F203D6
:1003D000F208031DEE29F3080319F4297118F42912
:1003E00071086F050319DD290D308316A0008030D8
:1003F000A10083126121F208031D012AF3080319E9
:10040000812A06308316A3008312B02078081B3996
:10041000031D7F2AED0171086E0501390319122AA7
:100420000130ED0065080C3C031D7E2A0A3083165E
:10043000A3008312B0207808F1000C308316A300CB
:100440008312B02078080739F000F00803193B2A1E
:100450006B08840083136C18831701307102F70056
:10046000F70DF70DF70DF830F705770870078000E6
:10047000840A80014B2A6B08840083136C1883174D
:10048000710DF700F70DF70DF830F7057708840ABE
:10049000800184038000F108031D502A0130F1001F
:1004A0007108103C0318562A1030F100F301F201D4
:1004B000F308031D7E2A7108720203187E2A690858
:1004C0007207F8007308FA006A0803186A0FFA073F
:1004D00078088316A0007A08A1000930A3008312CF
:1004E000B02083162008840083132118831778080E
:1004F0008000F20A0319F30A8312582A812A023073
:10050000ED006D08F80000340D308316A4000730AC
:10051000A50083129A204D08840083134E18831778
:100520004C0880000C30E5004E08E7004D08E6005E
:100530000130E8004E08EA004D08E900EC015030B7
:10054000EB0074217808CF00CF08031DAE2A5008B5
:10055000103C031DAE2AD1080319B02A0230CF0087
:100560004F08F800DA2DD0010D308316A400A50144
:1005700083129A204C08840083134D1883179330FC
:10058000800001304C07840083134D1883172030FE
:1005900080000C30E5004D08E7004C08E600023012
:1005A000E8004D08EA004C08E900EC015130EB008E
:1005B00074217808CE00CE08031DF92ACF014F0818
:1005C000033C031CED2A4F084C07840083134D188D
:1005D00083170008D006CF0ADF2A4F084C07840093
:1005E00083134D188317000850020319F92A0230AB
:1005F000CE004E08F800E02D5508F801540203180B
:10060000042B5408F700102BF7010830D600D40D46
:10061000F70D550877020318F700F80DD60B072BD6
:10062000003420304F1E3030D0004E08F700CE1F6F
:10063000202BF709F70A7708CE002D30D000CF170E
:100640004E08D4006430D500FC227708CE0030304C
:100650007807D1004E08D4000A30D500FC22303093
:100660007707D30030307807D2005008F700CF1D4D
:100670003B2BCF1F4F114F1A482BCF1F632B4F1906
:10068000632B7708D100CF18632B7708D200632B38
:1006900030305102031D632B7708D1002030D00089
:1006A000CF1D562B4F11CF14CF1FCF103030520219
:1006B000031D632B7708D2002030D100CF1D562BAD
:1006C000CF10CF1F4F104F1D692B50080C1E662BEB
:1006D0009900CF1C6F2B51080C1E6C2B99004F1CDE
:1006E000752B52080C1E722B990053080C1E762B8A
:1006F0009900003405308316A0000430A100831255
:1007000061210A308316A0008030A1008312CC2022
:10071000EA0167086A020318A62B6A086507F80051
:100720006608FA000318FA0A7808840083137A1816
:1007300083170008EC0009308316A40083126C08AC
:100740008316A50083129A20EA0A892B01308316AA
:10075000A4000330A50083129A20FF30EA00053080
:100760008316A3008312B0207808EB00EA03EA089E
:100770000319BC2B6B1DAF2B6808F8006908FA0041
:100780006808EC006908ED0022308316A30083128C
:10079000B0206C08840083136D18831778088000DC
:1007A00001306807F8006908FA000318FA0A7808A7
:1007B000EC007A08ED0021308316A3008312B020EC
:1007C0006C08840083136D18831778088000003448
:1007D0009330D3007030D400CE014E08043C031C8B
:1007E000132C02304E07533EF800FA010318FA0AA0
:1007F0007808DD007A08DE004E084C07F8004D0846
:10080000FA000318FA0A7808840083137A18831709
:100810000008DF005D08840083135E1883175F08FB
:100820008000CE0AED2BE6015330E5000730E700EB
:10083000E9015A30E8007A230C30E500E701533033
:10084000E6000930E800EA015330E900EC015130DC
:10085000EB0074217808CF00CF08031D392C510814
:10086000183C031D392CD208031D392C5308D00025
:100870003A2CD0015008F800322E4C08D6004D0812
:10088000D700D5015508053C031C682C02305507DC
:10089000563EF800FA010318FA0A7808E3007A08CD
:1008A000E40055084E07F8004F08FA000318FA0A4A
:1008B0007808840083137A1883170008E50063081A
:1008C000840083136418831765088000D50A422CBE
:1008D000D5015508033C031C8F2C08305507563EA4
:1008E000F800FA010318FA0A7808E3007A08E4002D
:1008F00055085007F8005108FA000318FA0A78085A
:10090000840083137A1883170008E50063088400C5
:1009100083136418831765088000D50A692C0E308C
:10092000E500E7015630E6000C30E800EA015630F9
:10093000E900EC015330EB0074217808D200D208B2
:10094000031DA92C08308316A3008312B020F819C8
:10095000AB2C0230D2005208F80000344D0884005D
:1009600083134E1883173030800001304D07840008
:1009700083134E1883174C08800002304D07D200B5
:100980004E08D3000318D30A4E08E6004D08E500D0
:100990000230E7005308E9005208E8007A230C30DF
:1009A000E5004E08E7004D08E6000430E8004E0878
:1009B000EA004D08E900EC015030EB0074217808A2
:1009C000CF00CF08031DEB2C5008903C031DEB2CEF
:1009D000D1080319ED2C0230CF004F08F800482E43
:1009E000A030D3004C08D400E6015330E5000230BB
:1009F000E700E9015530E8007A230C30E500E70113
:100A00005330E6000430E800EA015330E900EC011D
:100A10005030EB0074217808CF00CF08031D1C2D47
:100A20005008043C031D1C2DD108031D1C2D530828
:100A30000F390A3C03191E2D0230CF00CF08031DC9
:100A4000712DD20152080F3C031C472D5330520721
:100A5000F800FA010318FA0A7808E5007A08E600B7
:100A600052084D07F8004E08FA000318FA0A7808F1
:100A7000840083137A1883170008E7006508840050
:100A800083136618831767088000D20A222DE601B7
:100A90005330E5001030E700E9016330E8007A23C5
:100AA0000C30E500E7015330E6001230E800EA01BF
:100AB0005330E900EC015030EB0074217808CF008E
:100AC000CF08031D6F2D5008043C031D6F2DD10866
:100AD000031D6F2D53080F390A3C0319712D023085
:100AE000CF004F08F800F82E5030CF00D001E601BB
:100AF0004F30E5000230E700E9015130E8007A2389
:100B00000C30E500E7014F30E6000430E800EA0170
:100B10004F30E900EC014D30EB0074217808CC0037
:100B2000FB2E840183131F30830583168E15193025
:100B30009900A630980090308312980007309F00EB
:100B4000A601A701A801A901AA01AB01AC01AD0151
:100B5000AE01AF01B001B101B201B301B4010A307D
:100B6000B500FF30B600B700B800B900BA00BB004E
:100B7000BC01BD01BE01BF01C001C101C201C30171
:100B8000C401C50146100230C8000730CA00043055
:100B9000CB00DE280230C800831605168312051E1E
:100BA000D52D83160512831205122630CC00CE01F6
:100BB000CD00842A7808C900CD012630CC00B32AA4
:100BC0007808C9002608A1002708A2002808A30069
:100BD0002908A4002A08A50004308316A300831264
:100BE000B020F81EF72D8316051283120516C908CA
:100BF000031D2E2ECC014C080420CC0AF7007708E8
:100C00000C1E002E990007304C02031DFB2DCC0159
:100C10004C081020CC0AF70077080C1E0D2E990006
:100C200007304C02031D082EC7014708043C031C73
:100C30002A2E21304707840083130008CC0020307F
:100C40000C1E202E99004C08CE001F30CF0011231F
:100C5000C70A152E0A300C1E2B2E9900CD0121300B
:100C6000CC00E82B6030CC004A08CD00CF013630F4
:100C7000CE00D1012130D0003D247808C900C90838
:100C8000031DB22E4B08CC00CE012630CD00AE2C79
:100C90007808C900C90803195B2ECC014C081C2038
:100CA000CC0AF70077080C1E532E990010304C0226
:100CB000031D4E2EB22EC70147080F3C031C742E95
:100CC00026304707840083130008CC00CE001F3075
:100CD000CF00112320300C1E6B2E99002D300C1EDE
:100CE0006F2E9900C70A5C2ECC014C083120CC0A2B
:100CF000F70077080C1E7A2E990005304C02031D70
:100D0000752E3508CE001F30CF0011230A300C1E7F
:100D1000872E9900B508031DA32E8316851583120F
:100D2000851D952E0130C800A22ECC014C083E2016
:100D3000CC0AF70077080C1E9B2E990004304C0259
:100D4000031D962EA42EC8018316851583128519BE
:100D5000AD2E35080A3C0318AF2E0130C800B50887
:100D6000031D46144808013C031CFA2E480BC72EED
:100D70002D300C1EB92E990052300C1EBD2E99003C
:100D80000A300C1EC12E99000A30B500E22E013047
:100D90003502CC00CD014D084720CD0AF700770879
:100DA0000C1ED02E990005304D02031DCB2E4C0891
:100DB000CE001F30CF0011230A300C1EDD2E99000B
:100DC0000130B5026030CC004A08CD00CF0136308A
:100DD000CE00D1012130D0003D247808C900C908D7
:100DE000031DFA2E4B08CC00CE012630CD00F02C8E
:100DF0007808C900742D461CFF2E08308606461060
:100E00000230CC00FA30CD005420CC0B022FCA2D7A
:020E100063007D
:02400E00703F01
:00000001FF
;PIC16F628A
